:02000000802E50
:02000B00804D26
:1000300012003580FE75A882758901757FFA757E7C
:100040003F757DFB757C57757BFC757A0B7579C0A8
:1000500075785BC295C294D28D22C0E0BD000DAE12
:100060007EAF7F000000000DD2948025BD010BAE55
:100070007AAF7B00000DC2948017BD0209AE7CAF41
:100080007D0DD295800BBD0308AE78AF797D00C29F
:1000900095C28CE58A2EF58AE58C3FF58CD28CD002
:1000A000E032C0E0758D3C758BAFD28E308FFDC2D3
:0600B0008EC28FD0E02299
:00000001FF
